S0140000737465707065726D6F746F722E73726563DC
S113000012C019C018C017C016C015C014C013C040
S113001012C011C010C00FC00EC00DC00CC00BC068
S11300200AC009C008C011241FBECFE5D4E0DEBF5A
S1130030CDBF32D034C0E4CF8FEF82BB25E030E0B7
S113004081E090E082BB4FE956E861E041505040C6
S11300506040E1F700C00000880F991F215031096A
S11300602115310579F708958FEF82BB25E030E043
S113007088E090E082BB4FE956E861E0415050408F
S11300806040E1F700C00000959587952150310943
S11300902115310579F70895E7DFCEDFFDCFF89418
S10500A0FFCF8C
S9030000FC
